:020000040000FA
:100000000C945D000C9485000C9485000C94850084
:100010000C9485000C9485000C9485000C9485004C
:100020000C9485000C9485000C9485000C9485003C
:100030000C9485000C9485000C9485000C9485002C
:100040000C945C030C9485000C94CC030C94A603D4
:100050000C9485000C9485000C9485000C9485000C
:100060000C9485000C94850000000008000201003B
:100070000003040700000000000000000000000072
:10008000250028002B0000000000240027002A0083
:10009000040404040404040402020202020203032E
:1000A0000303030301020408102040800102040836
:1000B0001020010204081020B60511241FBECFEF46
:1000C000D8E0DEBFCDBF21E0A2E2B1E001C01D92C9
:1000D000A23DB207E1F711E0A0E0B1E0E2E0F1E11A
:1000E00002C005900D92A232B107D9F710E0CDE51C
:1000F000D0E004C02197FE010E947C06CC35D107D8
:10010000C9F70E94FE030C947F080C94000090E055
:10011000FC01EC55FF4F249180579F4FFC018491C7
:10012000882399F090E0880F991FFC01EA57FF4F50
:10013000A591B491FC01E458FF4F859194918FB73C
:10014000F894EC91E22BEC938FBF089590E0FC01C2
:10015000E859FF4F2491FC01EC55FF4F3491FC010D
:10016000E057FF4FE491EE23C9F0222339F023300A
:1001700001F1A8F4213019F1223029F1F0E0EE0F5D
:10018000FF1FE458FF4FA591B4918FB7F894EC91FD
:10019000611126C030953E233C938FBF08952730D0
:1001A000A9F02830C9F0243049F7809180008F7D74
:1001B00003C0809180008F7780938000DFCF84B56B
:1001C0008F7784BDDBCF84B58F7DFBCF8091B0006E
:1001D0008F778093B000D2CF8091B0008F7DF9CF20
:1001E0003E2BDACFAF92BF92CF92DF92EF92FF9287
:1001F0000F931F93CF93DF936C017B018B01040F4F
:10020000151FEB015E01AE18BF08C017D10759F0EA
:100210006991D601ED91FC910190F081E02DC6012C
:100220000995892B79F7C501DF91CF911F910F9126
:10023000FF90EF90DF90CF90BF90AF900895FC01BA
:10024000538D448D252F30E0842F90E0821B930B3B
:10025000541710F0CF96089501970895FC01918DE1
:10026000828D981761F0A28DAE0FBF2FB11D5D96E4
:100270008C91928D9F5F9F73928F90E008958FEF86
:100280009FEF08952FB7F89480912D0190912E0142
:10029000A0912F01B09130012FBF8093390190932D
:1002A0003A01A0933B01B0933C0181E391E00E94AD
:1002B0002E0197FF26C02FB7F89480912D019091C1
:1002C0002E01A0912F01B09130012FBF4091390133
:1002D00050913A0160913B0170913C01841B950B58
:1002E000A60BB70B40913501509136016091370153
:1002F0007091380184179507A607B707B0F28FEF02
:100300009FEF0895FC01918D828D981731F0828DB9
:10031000E80FF11D858D90E008958FEF9FEF089510
:10032000FC01918D228D892F90E0805C9F4F821B74
:1003300091098F739927089581E391E00E949001BC
:1003400021E0892B09F420E0822F089580E090E0DD
:10035000892B29F00E949C0181110C9400000895C2
:10036000FC01A48DA80FB92FB11DA35ABF4F2C912A
:10037000848D90E001968F739927848FA689B78921
:100380002C93A089B1898C91837080648C93938D18
:10039000848D981306C00288F389E02D80818F7DBB
:1003A00080830895EF92FF920F931F93CF93DF9373
:1003B000EC0181E0888F9B8D8C8D98131AC0E889A1
:1003C000F989808185FF15C09FB7F894EE89FF8970
:1003D0006083E889F98980818370806480839FBF0E
:1003E00081E090E0DF91CF911F910F91FF90EF900E
:1003F0000895F62E0B8D10E00F5F1F4F0F7311271E
:10040000E02E8C8D8E110CC00FB607FCFACFE88958
:10041000F989808185FFF5CFCE010E94B001F1CF2F
:10042000EB8DEC0FFD2FF11DE35AFF4FF0829FB7CC
:10043000F8940B8FEA89FB8980818062CFCFCF93BC
:10044000DF93EC01888D8823B9F0AA89BB89E889FC
:10045000F9898C9185FD03C0808186FD0DC00FB6A2
:1004600007FCF7CF8C9185FFF2CF808185FFEDCF20
:10047000CE010E94B001E9CFDF91CF910895AF92F4
:10048000BF92CF92DF92EF92FF920F931F93CF9381
:10049000DF93DC01CD90DC901197C114D10439F0C9
:1004A0001496CD91DC918C017601209761F4DF9157
:1004B000CF911F910F91FF90EF90DF90CF90BF9061
:1004C000AF90089575015701BFEFAB1ABB0AF70152
:1004D0008081082E000C990B0E941F06892B91F732
:1004E0002197CC0DDD1D8881082E000C990B0E94F0
:1004F0001F06892B29F0CE15DF0510F02197F3CFC9
:10050000AE014F5F5F4F4E195F09D80115965C939E
:100510004E931497CE14DF0420F4B701C6010E9455
:100520006408D801ED91FC91119714968D919C91DE
:10053000E80FF91F1082BBCF0F931F93CF93DF9368
:10054000EC0188819981009759F02A813B81261717
:10055000370730F081E0DF91CF911F910F9108951F
:100560008B016F5F7F4F0E94A707009759F0998317
:1005700088831B830A832C813D81232B59F7FC013F
:100580001082E8CF80E0E7CFCF93DF93EC01888142
:100590009981009711F00E941E07198218821D820E
:1005A0001C821B821A82DF91CF910895CF93DF9333
:1005B000EC0170E060E00E949C02811105C0CE0158
:1005C000DF91CF910C94C4021D821C8260E271E025
:1005D00088819981DF91CF910C9478089F92AF9296
:1005E000BF92CF92DF92EF92FF920F931F93CF9320
:1005F000DF93EC016B015A0179012417350720F4D0
:100600008B2D5901E42EF82E198218821B821A8232
:100610001D821C82CE010E94D602D60114960D9135
:100620001C91A016B10658F5E016F10608F48701F2
:10063000D601ED91FC911197E00FF11F908010828F
:10064000ED90FC90EA0CFB1CE114F10471F0F70151
:1006500001900020E9F731975F01AE18BF08B5019E
:10066000CE010E949C02811117C0CE010E94C402DB
:10067000F60180819181080F191FD8019C92CE014B
:10068000DF91CF911F910F91FF90EF90DF90CF906E
:10069000BF90AF909F900895BD82AC82B7018881D2
:1006A00099810E947808E4CFFC01808191810097B4
:1006B00011F00C941E0708951F920F920FB60F921F
:1006C00011242F933F938F939F93AF93BF93809168
:1006D0002D0190912E01A0912F01B0913001309108
:1006E0002C0123E0230F2D3758F50196A11DB11DD4
:1006F00020932C0180932D0190932E01A0932F0124
:10070000B09330018091280190912901A0912A0194
:10071000B0912B010196A11DB11D809328019093EA
:100720002901A0932A01B0932B01BF91AF919F9112
:100730008F913F912F910F900FBE0F901F901895A2
:1007400026E8230F0296A11DB11DD2CF1F920F9252
:100750000FB60F9211242F933F934F935F936F9394
:100760007F938F939F93AF93BF93EF93FF9381E317
:1007700091E00E94B001FF91EF91BF91AF919F91E5
:100780008F917F916F915F914F913F912F910F903A
:100790000FBE0F901F9018951F920F920FB60F92D9
:1007A00011242F938F939F93EF93FF93E091410137
:1007B000F09142018081E0914701F091480182FD72
:1007C0001BC0908180914A018F5F8F7320914B01F4
:1007D000821741F0E0914A01F0E0EF5CFE4F958F07
:1007E00080934A01FF91EF919F918F912F910F90EC
:1007F0000FBE0F901F9018958081F4CFCF93DF9399
:10080000CDB7DEB762970FB6F894DEBF0FBECDBF8F
:10081000789484B5826084BD84B5816084BD85B5DB
:10082000826085BD85B5816085BD80916E008160E7
:1008300080936E001092810080918100826080938D
:10084000810080918100816080938100809180008F
:100850008160809380008091B10084608093B100BA
:100860008091B00081608093B00080917A008460B4
:1008700080937A0080917A00826080937A008091E0
:100880007A00816080937A0080917A0080688093FA
:100890007A001092C10088E00E94870089E00E94DF
:1008A0008700E0914101F091420182E08083E09174
:1008B0003D01F0913E011082E0913F01F091400135
:1008C0008FEC808310924901E0914501F09146013F
:1008D00086E08083E0914301F09144018081806152
:1008E0008083E0914301F09144018081886080839E
:1008F000E0914301F0914401808180688083E09120
:100900004301F091440180818F7D808361E088E024
:100910000E94A60060E089E00E94A60080E0E82E28
:1009200080E0F82ECC24C394D12C81E391E00E9486
:100930009001181619060CF0A8C01E861D86188A8C
:100940001F861A8A198ACE010D960E94D6020E942D
:10095000420197FD1EC08A309105D9F089831A8221
:1009600009891A890F5F1F4FB801CE010D960E94A9
:100970009C02882361F32D853E8589899A89BE0171
:100980006F5F7F4F820F931F0E9478081A8B098B2D
:10099000DECFCE010D960E943F0289899A89892B6C
:1009A00009F46FC00D851E856CE270E0C8010E94DD
:1009B0006D08009709F465C09C01201B310B89016B
:1009C0000F3F100709F45DC0980150E040E0BE0100
:1009D000635F7F4FCE0107960E94EE0229893A8914
:1009E000A8014F5F5F4FBE01635F7F4FCE0101964D
:1009F0000E94EE02CE0107960E943F02CE010196B0
:100A00000E943F028F819885812C912C5401009780
:100A100021F00E94E3054B015C0189819A810097D6
:100A200041F10E94E3052B013C01181419041A043A
:100A30001B04FCF41414150416041704D4F4A8EED3
:100A4000B3E0A50194010E942B066093040170930A
:100A500005018093060190930701A30192010E9472
:100A60002B06609300017093010180930201909323
:100A70000301CE0101960E945403CE0107960E9405
:100A80005403CE010D960E9454032FB7F894809121
:100A90002D0190912E01A0912F01B09130012FBF17
:100AA000209126013091270140912201509123018C
:100AB00060912401709125018C01232B91F59D01FA
:100AC000041B150B260B370B4091040150910501B7
:100AD0006091060170910701041715072607370773
:100AE000A0F08093220190932301A0932401B0935E
:100AF0002501D0922701C092260160E088E00E9483
:100B0000A60061E089E00E94A600E114F10409F466
:100B10000CCF0E949C01882309F407CF0E9400009B
:100B200004CF9D01041B150B260B370B40910001D0
:100B300050910101609102017091030104171507A2
:100B40002607370710F38093220190932301A09387
:100B50002401B0932501109227011092260160E034
:100B600089E00E94A60061E088E0CDCFE1E3F1E0FA
:100B70001382128288EE93E0A0E0B0E08483958334
:100B8000A683B78382E191E09183808385EC90E036
:100B90009587848784EC90E09787868780EC90E047
:100BA000918B808B81EC90E0938B828B82EC90E038
:100BB000958B848B86EC90E0978B868B118E128EB2
:100BC000138E148E08951F93FC0199278827BC016A
:100BD000E89411911032E9F3193010F01E30C8F387
:100BE0001B3251F01D3249F4689406C00E940A0677
:100BF000610F711D811D911D119110531A30B0F3B9
:100C00003EF490958095709561957F4F8F4F9F4FE3
:100C10001F910895592F482F372F262F660F771FC2
:100C2000881F991F660F771F881F991F620F731FF8
:100C3000841F951F660F771F881F991F08959111B4
:100C40000C942806803219F089508550C8F7089511
:100C50009927882708950E946D06A59F900DB49F3F
:100C6000900DA49F800D911D112408952F923F9205
:100C70004F925F926F927F928F929F92AF92BF92AC
:100C8000CF92DF92EF92FF920F931F93CF93DF9358
:100C9000CDB7DEB7CA1BDB0B0FB6F894DEBF0FBEB5
:100CA000CDBF09942A88398848885F846E847D8402
:100CB0008C849B84AA84B984C884DF80EE80FD8004
:100CC0000C811B81AA81B981CE0FD11D0FB6F8947A
:100CD000DEBF0FBECDBFED010895A29FB001B39F4F
:100CE000C001A39F700D811D1124911DB29F700D35
:100CF000811D1124911D0895EE0FFF1F0590F491A1
:100D0000E02D09940F931F93CF93DF9382309105C9
:100D100010F482E090E0E091D001F091D10130E058
:100D200020E0B0E0A0E0309799F42115310509F4F6
:100D30004AC0281B390B24303105D8F58A819B81A4
:100D40006115710589F1FB0193838283FE0111C056
:100D5000408151810281138148175907E0F04817FB
:100D6000590799F4109761F012960C931297139605
:100D70001C933296CF01DF91CF911F910F9108956F
:100D80000093D0011093D101F4CF2115310551F01A
:100D90004217530738F0A901DB019A01BD01DF01B9
:100DA000F801C1CFEF01F9CF9093D1018093D00129
:100DB000CDCFFE01E20FF31F8193919322503109B1
:100DC00039832883D7CF2091CE013091CF01232BB7
:100DD00041F420910A0130910B013093CF0120930F
:100DE000CE0120910801309109012115310541F40E
:100DF0002DB73EB740910C0150910D01241B350BCE
:100E0000E091CE01F091CF01E217F307A0F42E1B81
:100E10003F0B2817390778F0AC014E5F5F4F24175E
:100E2000350748F04E0F5F1F5093CF014093CE011E
:100E3000819391939FCFF0E0E0E09CCFCF93DF933D
:100E40000097E9F0FC01329713821282A091D00141
:100E5000B091D101ED0130E020E01097A1F42081A4
:100E60003181820F931F2091CE013091CF0128173D
:100E7000390709F061C0F093CF01E093CE01DF9113
:100E8000CF910895EA01CE17DF07E8F54A815B812B
:100E90009E0141155105B1F7E901FB83EA834991B0
:100EA0005991C40FD51FEC17FD0761F48081918122
:100EB0000296840F951FE90199838883828193812B
:100EC0009B838A83F0E0E0E012968D919C911397CA
:100ED0000097B9F52D913C911197CD010296820FA3
:100EE000931F2091CE013091CF012817390739F691
:100EF000309751F51092D1011092D001B093CF01EB
:100F0000A093CE01BCCFD383C28340815181840F93
:100F1000951FC817D90761F44E5F5F4F888199818B
:100F2000480F591F518340838A819B819383828319
:100F30002115310509F0B0CFF093D101E093D00134
:100F40009ECFFD01DC01C0CF13821282D7CFB0E06B
:100F5000A0E0EDEAF7E00C9438068C01009751F41C
:100F6000CB010E9482068C01C801CDB7DEB7E0E15B
:100F70000C945406FC01E60FF71F9C012250310926
:100F8000E217F30708F49DC0D901CD91DC911197C8
:100F9000C617D70798F0C530D10530F3CE010497B6
:100FA0008617970708F3C61BD70B2297C193D193D7
:100FB0006D937C93CF010E941E07D6CF5B01AC1AC4
:100FC000BD0A4C018C0E9D1EA091D001B091D101A3
:100FD000512C412CF12CE12C109731F58091CE0150
:100FE0009091CF018815990509F05CC04616570607
:100FF00008F058C08091080190910901009741F4D0
:101000008DB79EB740910C0150910D01841B950B3B
:10101000E817F90708F055C0F093CF01E093CE012F
:10102000F90171836083A0CF8D919C9111971296E5
:101030006C90129713967C901397A815B90559F5E3
:101040006C0142E0C40ED11CCA14DB0420F1AC01D7
:101050004A195B09DA011296159780F06282738251
:1010600051834083D9016D937C93E114F10471F0B5
:10107000D7011396FC93EE93129776CF22968C0F9E
:101080009D1FF90191838083F301EFCFF093D1018C
:10109000E093D00169CF4816590608F42C017D0170
:1010A000D3019ACFCB010E9482067C01009749F0C0
:1010B000AE01B8010E946408C8010E941E078701A2
:1010C00053CF10E000E050CFFB01DC0102C00190E3
:1010D0000D9241505040D8F70895FC018191861738
:1010E00021F08823D9F7992708953197CF010895E2
:1010F000FB01DC0101900D920020E1F70895F894C6
:10110000FFCFB80B0000B80B00000000D201800038
:1011100000000000D201F2001F011F0290012E0109
:041120008201000048
:107E0000112484B714BE81FFF0D085E080938100F7
:107E100082E08093C00088E18093C10086E0809377
:107E2000C20080E18093C4008EE0C9D0259A86E02C
:107E300020E33CEF91E0309385002093840096BBD3
:107E4000B09BFECF1D9AA8958150A9F7CC24DD24C4
:107E500088248394B5E0AB2EA1E19A2EF3E0BF2EE7
:107E6000A2D0813461F49FD0082FAFD0023811F036
:107E7000013811F484E001C083E08DD089C08234E0
:107E800011F484E103C0853419F485E0A6D080C0E4
:107E9000853579F488D0E82EFF2485D0082F10E0AE
:107EA000102F00270E291F29000F111F8ED06801E7
:107EB0006FC0863521F484E090D080E0DECF843638
:107EC00009F040C070D06FD0082F6DD080E0C81688
:107ED00080E7D80618F4F601B7BEE895C0E0D1E017
:107EE00062D089930C17E1F7F0E0CF16F0E7DF06D8
:107EF00018F0F601B7BEE89568D007B600FCFDCFD4
:107F0000A601A0E0B1E02C9130E011968C91119780
:107F100090E0982F8827822B932B1296FA010C0160
:107F200087BEE89511244E5F5F4FF1E0A038BF0790
:107F300051F7F601A7BEE89507B600FCFDCF97BE46
:107F4000E89526C08437B1F42ED02DD0F82E2BD052
:107F50003CD0F601EF2C8F010F5F1F4F84911BD097
:107F6000EA94F801C1F70894C11CD11CFA94CF0C13
:107F7000D11C0EC0853739F428D08EE10CD085E9AC
:107F80000AD08FE07ACF813511F488E018D01DD067
:107F900080E101D065CF982F8091C00085FFFCCF94
:107FA0009093C60008958091C00087FFFCCF809118
:107FB000C00084FD01C0A8958091C6000895E0E648
:107FC000F0E098E1908380830895EDDF803219F02E
:107FD00088E0F5DFFFCF84E1DECF1F93182FE3DFCA
:107FE0001150E9F7F2DF1F91089580E0E8DFEE27F6
:047FF000FF270994CA
:027FFE00040479
:00000001FF
